{
  "_format": "hh-sol-artifact-1",
  "contractName": "AnonymousIncidentReporting",
  "sourceName": "contracts/AnonymousIncidentReporting.sol",
  "abi": [
    {
      "inputs": [],
      "stateMutability": "nonpayable",
      "type": "constructor"
    },
    {
      "inputs": [
        {
          "internalType": "address",
          "name": "owner",
          "type": "address"
        }
      ],
      "name": "OwnableInvalidOwner",
      "type": "error"
    },
    {
      "inputs": [
        {
          "internalType": "address",
          "name": "account",
          "type": "address"
        }
      ],
      "name": "OwnableUnauthorizedAccount",
      "type": "error"
    },
    {
      "inputs": [],
      "name": "ReentrancyGuardReentrantCall",
      "type": "error"
    },
    {
      "anonymous": false,
      "inputs": [
        {
          "indexed": true,
          "internalType": "uint256",
          "name": "reportId",
          "type": "uint256"
        },
        {
          "indexed": true,
          "internalType": "bytes32",
          "name": "reportHash",
          "type": "bytes32"
        },
        {
          "indexed": false,
          "internalType": "enum AnonymousIncidentReporting.IncidentType",
          "name": "incidentType",
          "type": "uint8"
        },
        {
          "indexed": false,
          "internalType": "enum AnonymousIncidentReporting.SeverityLevel",
          "name": "severity",
          "type": "uint8"
        },
        {
          "indexed": false,
          "internalType": "bool",
          "name": "isAnonymous",
          "type": "bool"
        },
        {
          "indexed": false,
          "internalType": "uint256",
          "name": "timestamp",
          "type": "uint256"
        }
      ],
      "name": "IncidentReported",
      "type": "event"
    },
    {
      "anonymous": false,
      "inputs": [
        {
          "indexed": true,
          "internalType": "address",
          "name": "previousOwner",
          "type": "address"
        },
        {
          "indexed": true,
          "internalType": "address",
          "name": "newOwner",
          "type": "address"
        }
      ],
      "name": "OwnershipTransferred",
      "type": "event"
    },
    {
      "anonymous": false,
      "inputs": [
        {
          "indexed": true,
          "internalType": "address",
          "name": "ranger",
          "type": "address"
        }
      ],
      "name": "RangerAuthorized",
      "type": "event"
    },
    {
      "anonymous": false,
      "inputs": [
        {
          "indexed": true,
          "internalType": "address",
          "name": "ranger",
          "type": "address"
        }
      ],
      "name": "RangerRevoked",
      "type": "event"
    },
    {
      "anonymous": false,
      "inputs": [
        {
          "indexed": true,
          "internalType": "uint256",
          "name": "reportId",
          "type": "uint256"
        },
        {
          "indexed": false,
          "internalType": "enum AnonymousIncidentReporting.ReportStatus",
          "name": "oldStatus",
          "type": "uint8"
        },
        {
          "indexed": false,
          "internalType": "enum AnonymousIncidentReporting.ReportStatus",
          "name": "newStatus",
          "type": "uint8"
        },
        {
          "indexed": false,
          "internalType": "uint256",
          "name": "timestamp",
          "type": "uint256"
        }
      ],
      "name": "ReportStatusUpdated",
      "type": "event"
    },
    {
      "anonymous": false,
      "inputs": [
        {
          "indexed": true,
          "internalType": "uint256",
          "name": "reportId",
          "type": "uint256"
        },
        {
          "indexed": true,
          "internalType": "address",
          "name": "verifier",
          "type": "address"
        },
        {
          "indexed": false,
          "internalType": "bool",
          "name": "isValid",
          "type": "bool"
        },
        {
          "indexed": false,
          "internalType": "uint256",
          "name": "timestamp",
          "type": "uint256"
        }
      ],
      "name": "ReportVerified",
      "type": "event"
    },
    {
      "anonymous": false,
      "inputs": [
        {
          "indexed": true,
          "internalType": "uint256",
          "name": "reportId",
          "type": "uint256"
        },
        {
          "indexed": true,
          "internalType": "address",
          "name": "reporter",
          "type": "address"
        },
        {
          "indexed": false,
          "internalType": "uint256",
          "name": "amount",
          "type": "uint256"
        }
      ],
      "name": "RewardClaimed",
      "type": "event"
    },
    {
      "inputs": [],
      "name": "MIN_VERIFICATIONS",
      "outputs": [
        {
          "internalType": "uint256",
          "name": "",
          "type": "uint256"
        }
      ],
      "stateMutability": "view",
      "type": "function"
    },
    {
      "inputs": [],
      "name": "REWARD_AMOUNT",
      "outputs": [
        {
          "internalType": "uint256",
          "name": "",
          "type": "uint256"
        }
      ],
      "stateMutability": "view",
      "type": "function"
    },
    {
      "inputs": [],
      "name": "addRewardPool",
      "outputs": [],
      "stateMutability": "payable",
      "type": "function"
    },
    {
      "inputs": [
        {
          "internalType": "address",
          "name": "_ranger",
          "type": "address"
        }
      ],
      "name": "authorizeRanger",
      "outputs": [],
      "stateMutability": "nonpayable",
      "type": "function"
    },
    {
      "inputs": [
        {
          "internalType": "address",
          "name": "",
          "type": "address"
        }
      ],
      "name": "authorizedRangers",
      "outputs": [
        {
          "internalType": "bool",
          "name": "",
          "type": "bool"
        }
      ],
      "stateMutability": "view",
      "type": "function"
    },
    {
      "inputs": [
        {
          "internalType": "uint256",
          "name": "_reportId",
          "type": "uint256"
        },
        {
          "internalType": "address",
          "name": "_reporterAddress",
          "type": "address"
        }
      ],
      "name": "claimReward",
      "outputs": [],
      "stateMutability": "nonpayable",
      "type": "function"
    },
    {
      "inputs": [],
      "name": "getBalance",
      "outputs": [
        {
          "internalType": "uint256",
          "name": "",
          "type": "uint256"
        }
      ],
      "stateMutability": "view",
      "type": "function"
    },
    {
      "inputs": [
        {
          "internalType": "uint256",
          "name": "_reportId",
          "type": "uint256"
        }
      ],
      "name": "getReport",
      "outputs": [
        {
          "internalType": "bytes32",
          "name": "reportHash",
          "type": "bytes32"
        },
        {
          "internalType": "enum AnonymousIncidentReporting.IncidentType",
          "name": "incidentType",
          "type": "uint8"
        },
        {
          "internalType": "enum AnonymousIncidentReporting.SeverityLevel",
          "name": "severity",
          "type": "uint8"
        },
        {
          "internalType": "enum AnonymousIncidentReporting.ReportStatus",
          "name": "status",
          "type": "uint8"
        },
        {
          "internalType": "uint256",
          "name": "timestamp",
          "type": "uint256"
        },
        {
          "internalType": "int256",
          "name": "latitude",
          "type": "int256"
        },
        {
          "internalType": "int256",
          "name": "longitude",
          "type": "int256"
        },
        {
          "internalType": "string",
          "name": "locationDescription",
          "type": "string"
        },
        {
          "internalType": "bytes32",
          "name": "evidenceHash",
          "type": "bytes32"
        },
        {
          "internalType": "bool",
          "name": "isAnonymous",
          "type": "bool"
        },
        {
          "internalType": "uint256",
          "name": "verificationCount",
          "type": "uint256"
        },
        {
          "internalType": "uint256",
          "name": "rewardAmount",
          "type": "uint256"
        }
      ],
      "stateMutability": "view",
      "type": "function"
    },
    {
      "inputs": [
        {
          "internalType": "uint256",
          "name": "_reportId",
          "type": "uint256"
        }
      ],
      "name": "getReportVerifications",
      "outputs": [
        {
          "components": [
            {
              "internalType": "address",
              "name": "verifier",
              "type": "address"
            },
            {
              "internalType": "bool",
              "name": "isValid",
              "type": "bool"
            },
            {
              "internalType": "string",
              "name": "comment",
              "type": "string"
            },
            {
              "internalType": "uint256",
              "name": "timestamp",
              "type": "uint256"
            }
          ],
          "internalType": "struct AnonymousIncidentReporting.Verification[]",
          "name": "",
          "type": "tuple[]"
        }
      ],
      "stateMutability": "view",
      "type": "function"
    },
    {
      "inputs": [
        {
          "internalType": "address",
          "name": "_user",
          "type": "address"
        }
      ],
      "name": "getUserReports",
      "outputs": [
        {
          "internalType": "uint256[]",
          "name": "",
          "type": "uint256[]"
        }
      ],
      "stateMutability": "view",
      "type": "function"
    },
    {
      "inputs": [],
      "name": "owner",
      "outputs": [
        {
          "internalType": "address",
          "name": "",
          "type": "address"
        }
      ],
      "stateMutability": "view",
      "type": "function"
    },
    {
      "inputs": [],
      "name": "renounceOwnership",
      "outputs": [],
      "stateMutability": "nonpayable",
      "type": "function"
    },
    {
      "inputs": [],
      "name": "reportCount",
      "outputs": [
        {
          "internalType": "uint256",
          "name": "",
          "type": "uint256"
        }
      ],
      "stateMutability": "view",
      "type": "function"
    },
    {
      "inputs": [
        {
          "internalType": "bytes32",
          "name": "",
          "type": "bytes32"
        }
      ],
      "name": "reportExists",
      "outputs": [
        {
          "internalType": "bool",
          "name": "",
          "type": "bool"
        }
      ],
      "stateMutability": "view",
      "type": "function"
    },
    {
      "inputs": [
        {
          "internalType": "uint256",
          "name": "",
          "type": "uint256"
        },
        {
          "internalType": "uint256",
          "name": "",
          "type": "uint256"
        }
      ],
      "name": "reportVerifications",
      "outputs": [
        {
          "internalType": "address",
          "name": "verifier",
          "type": "address"
        },
        {
          "internalType": "bool",
          "name": "isValid",
          "type": "bool"
        },
        {
          "internalType": "string",
          "name": "comment",
          "type": "string"
        },
        {
          "internalType": "uint256",
          "name": "timestamp",
          "type": "uint256"
        }
      ],
      "stateMutability": "view",
      "type": "function"
    },
    {
      "inputs": [
        {
          "internalType": "uint256",
          "name": "",
          "type": "uint256"
        }
      ],
      "name": "reports",
      "outputs": [
        {
          "internalType": "bytes32",
          "name": "reportHash",
          "type": "bytes32"
        },
        {
          "internalType": "enum AnonymousIncidentReporting.IncidentType",
          "name": "incidentType",
          "type": "uint8"
        },
        {
          "internalType": "enum AnonymousIncidentReporting.SeverityLevel",
          "name": "severity",
          "type": "uint8"
        },
        {
          "internalType": "enum AnonymousIncidentReporting.ReportStatus",
          "name": "status",
          "type": "uint8"
        },
        {
          "internalType": "uint256",
          "name": "timestamp",
          "type": "uint256"
        },
        {
          "internalType": "int256",
          "name": "latitude",
          "type": "int256"
        },
        {
          "internalType": "int256",
          "name": "longitude",
          "type": "int256"
        },
        {
          "internalType": "string",
          "name": "locationDescription",
          "type": "string"
        },
        {
          "internalType": "bytes32",
          "name": "evidenceHash",
          "type": "bytes32"
        },
        {
          "internalType": "address",
          "name": "reporter",
          "type": "address"
        },
        {
          "internalType": "uint256",
          "name": "verificationCount",
          "type": "uint256"
        },
        {
          "internalType": "bool",
          "name": "isAnonymous",
          "type": "bool"
        },
        {
          "internalType": "uint256",
          "name": "rewardAmount",
          "type": "uint256"
        }
      ],
      "stateMutability": "view",
      "type": "function"
    },
    {
      "inputs": [
        {
          "internalType": "address",
          "name": "_ranger",
          "type": "address"
        }
      ],
      "name": "revokeRanger",
      "outputs": [],
      "stateMutability": "nonpayable",
      "type": "function"
    },
    {
      "inputs": [],
      "name": "rewardPool",
      "outputs": [
        {
          "internalType": "uint256",
          "name": "",
          "type": "uint256"
        }
      ],
      "stateMutability": "view",
      "type": "function"
    },
    {
      "inputs": [
        {
          "internalType": "bytes32",
          "name": "_reportHash",
          "type": "bytes32"
        },
        {
          "internalType": "enum AnonymousIncidentReporting.IncidentType",
          "name": "_incidentType",
          "type": "uint8"
        },
        {
          "internalType": "enum AnonymousIncidentReporting.SeverityLevel",
          "name": "_severity",
          "type": "uint8"
        },
        {
          "internalType": "int256",
          "name": "_latitude",
          "type": "int256"
        },
        {
          "internalType": "int256",
          "name": "_longitude",
          "type": "int256"
        },
        {
          "internalType": "string",
          "name": "_locationDescription",
          "type": "string"
        },
        {
          "internalType": "bytes32",
          "name": "_evidenceHash",
          "type": "bytes32"
        },
        {
          "internalType": "bool",
          "name": "_isAnonymous",
          "type": "bool"
        }
      ],
      "name": "submitReport",
      "outputs": [
        {
          "internalType": "uint256",
          "name": "",
          "type": "uint256"
        }
      ],
      "stateMutability": "nonpayable",
      "type": "function"
    },
    {
      "inputs": [
        {
          "internalType": "address",
          "name": "newOwner",
          "type": "address"
        }
      ],
      "name": "transferOwnership",
      "outputs": [],
      "stateMutability": "nonpayable",
      "type": "function"
    },
    {
      "inputs": [
        {
          "internalType": "uint256",
          "name": "_reportId",
          "type": "uint256"
        },
        {
          "internalType": "enum AnonymousIncidentReporting.ReportStatus",
          "name": "_newStatus",
          "type": "uint8"
        }
      ],
      "name": "updateReportStatus",
      "outputs": [],
      "stateMutability": "nonpayable",
      "type": "function"
    },
    {
      "inputs": [
        {
          "internalType": "address",
          "name": "",
          "type": "address"
        },
        {
          "internalType": "uint256",
          "name": "",
          "type": "uint256"
        }
      ],
      "name": "userReports",
      "outputs": [
        {
          "internalType": "uint256",
          "name": "",
          "type": "uint256"
        }
      ],
      "stateMutability": "view",
      "type": "function"
    },
    {
      "inputs": [
        {
          "internalType": "uint256",
          "name": "_reportId",
          "type": "uint256"
        },
        {
          "internalType": "bool",
          "name": "_isValid",
          "type": "bool"
        },
        {
          "internalType": "string",
          "name": "_comment",
          "type": "string"
        }
      ],
      "name": "verifyReport",
      "outputs": [],
      "stateMutability": "nonpayable",
      "type": "function"
    },
    {
      "inputs": [
        {
          "internalType": "uint256",
          "name": "_amount",
          "type": "uint256"
        }
      ],
      "name": "withdraw",
      "outputs": [],
      "stateMutability": "nonpayable",
      "type": "function"
    },
    {
      "stateMutability": "payable",
      "type": "receive"
    }
  ],
  "bytecode": "0x608060405234801561001057600080fd5b50338061003757604051631e4fbdf760e01b81526000600482015260240160405180910390fd5b6100408161004f565b5060018055600060025561009f565b600080546001600160a01b038381166001600160a01b0319831681178455604051919092169283917f8be0079c531659141344cd1fd0a4f28419497f9722a3daafe3b4186f6b6457e09190a35050565b611fb5806100ae6000396000f3fe60806040526004361061014f5760003560e01c80638a4171f4116100b6578063c942adf71161006f578063c942adf7146103ef578063cf84944214610428578063e52ac82814610443578063e70eb39214610463578063f2fde38b14610483578063f3ed5976146104a357600080fd5b80638a4171f4146102da5780638da5cb5b1461031a57806398f1de5a14610342578063990e423c14610362578063a8d170eb14610392578063aa18ad93146103bf57600080fd5b80634e7f9b19116101085780634e7f9b191461022257806350e0ec531461025a5780635a345e461461026257806366666aa91461028257806370a05afc14610298578063715018a6146102c557600080fd5b806312065fe0146101735780631451c73c14610195578063185c6f84146101b75780632e1a7d4d146101cd57806346d83625146101ed5780634a69b2811461020257600080fd5b3661016e57346007600082825461016691906117fe565b925050819055005b600080fd5b34801561017f57600080fd5b50475b6040519081526020015b60405180910390f35b3480156101a157600080fd5b506101b56101b0366004611833565b6104c3565b005b3480156101c357600080fd5b5061018260025481565b3480156101d957600080fd5b506101b56101e8366004611855565b610514565b3480156101f957600080fd5b50610182600381565b34801561020e57600080fd5b506101b561021d366004611921565b610603565b34801561022e57600080fd5b5061024261023d366004611855565b6108d9565b60405161018c9c9b9a99989796959493929190611a08565b6101b5610b63565b34801561026e57600080fd5b5061018261027d366004611a8b565b610b7c565b34801561028e57600080fd5b5061018260075481565b3480156102a457600080fd5b506102b86102b3366004611833565b610bad565b60405161018c9190611ab5565b3480156102d157600080fd5b506101b5610c19565b3480156102e657600080fd5b5061030a6102f5366004611855565b60066020526000908152604090205460ff1681565b604051901515815260200161018c565b34801561032657600080fd5b506000546040516001600160a01b03909116815260200161018c565b34801561034e57600080fd5b506101b561035d366004611833565b610c2d565b34801561036e57600080fd5b5061038261037d366004611af9565b610c81565b60405161018c9493929190611b1b565b34801561039e57600080fd5b506103b26103ad366004611855565b610d61565b60405161018c9190611b58565b3480156103cb57600080fd5b5061030a6103da366004611833565b60086020526000908152604090205460ff1681565b3480156103fb57600080fd5b5061040f61040a366004611855565b610ebb565b60405161018c9d9c9b9a99989796959493929190611bf1565b34801561043457600080fd5b50610182662386f26fc1000081565b34801561044f57600080fd5b5061018261045e366004611c85565b610fc1565b34801561046f57600080fd5b506101b561047e366004611d27565b61134c565b34801561048f57600080fd5b506101b561049e366004611833565b6115dc565b3480156104af57600080fd5b506101b56104be366004611d53565b61161a565b6104cb6116be565b6001600160a01b038116600081815260086020526040808220805460ff19169055517fa4334067b8316f577aa8919458d216af5481bc23310d2c19f437a90e64021c4d9190a250565b61051c6116be565b478111156105685760405162461bcd60e51b8152602060048201526014602482015273496e73756666696369656e742062616c616e636560601b60448201526064015b60405180910390fd5b600080546040516001600160a01b039091169083908381818185875af1925050503d80600081146105b5576040519150601f19603f3d011682016040523d82523d6000602084013e6105ba565b606091505b50509050806105ff5760405162461bcd60e51b815260206004820152601160248201527015da5d1a191c985dd85b0819985a5b1959607a1b604482015260640161055f565b5050565b3360009081526008602052604090205460ff168061062b57506000546001600160a01b031633145b61066f5760405162461bcd60e51b81526020600482015260156024820152742737ba1030baba3437b934bd32b2103930b733b2b960591b604482015260640161055f565b60008311801561068157506002548311155b61069d5760405162461bcd60e51b815260040161055f90611d87565b6000808481526003602052604090206001015462010000900460ff1660048111156106ca576106ca611978565b146107175760405162461bcd60e51b815260206004820152601860248201527f5265706f727420616c72656164792070726f6365737365640000000000000000604482015260640161055f565b60008381526004602090815260408083208151608081018352338152861515818501908152928101868152426060830152825460018181018555938752949095208151600390950201805493511515600160a01b026001600160a81b03199094166001600160a01b0395909516949094179290921783559251909282019061079f9082611e3a565b506060919091015160029091015560008381526003602052604081206008018054916107ca83611efa565b9091555050604080518315158152426020820152339185917fc1fceff7005fa89da3f94a4b9f891c14e4c6f664bc4dbe6b66b63c088eba67ff910160405180910390a3600083815260036020819052604090912060080154106108d4576000805b6000858152600460205260409020548110156108a157600085815260046020526040902080548290811061086157610861611f13565b6000918252602090912060039091020154600160a01b900460ff161561088f578161088b81611efa565b9250505b8061089981611efa565b91505061082b565b50600381106108d2576108b58460026116eb565b6000848152600360205260409020662386f26fc10000600a909101555b505b505050565b6000806000806000806000606060008060008060008d1180156108fe57506002548d11155b61091a5760405162461bcd60e51b815260040161055f90611d87565b60008d815260036020908152604080832081516101a08101909252805482526001810154919290919083019060ff16600681111561095a5761095a611978565b600681111561096b5761096b611978565b81526020016001820160019054906101000a900460ff16600381111561099357610993611978565b60038111156109a4576109a4611978565b81526020016001820160029054906101000a900460ff1660048111156109cc576109cc611978565b60048111156109dd576109dd611978565b8152602001600282015481526020016003820154815260200160048201548152602001600582018054610a0f90611db2565b80601f0160208091040260200160405190810160405280929190818152602001828054610a3b90611db2565b8015610a885780601f10610a5d57610100808354040283529160200191610a88565b820191906000526020600020905b815481529060010190602001808311610a6b57829003601f168201915b50505050508152602001600682015481526020016007820160009054906101000a90046001600160a01b03166001600160a01b03166001600160a01b03168152602001600882015481526020016009820160009054906101000a900460ff16151515158152602001600a820154815250509050806000015181602001518260400151836060015184608001518560a001518660c001518760e001518861010001518961016001518a61014001518b61018001519c509c509c509c509c509c509c509c509c509c509c509c505091939597999b5091939597999b565b3460076000828254610b7591906117fe565b9091555050565b60056020528160005260406000208181548110610b9857600080fd5b90600052602060002001600091509150505481565b6001600160a01b038116600090815260056020908152604091829020805483518184028101840190945280845260609392830182828015610c0d57602002820191906000526020600020905b815481526020019060010190808311610bf9575b50505050509050919050565b610c216116be565b610c2b600061176e565b565b610c356116be565b6001600160a01b038116600081815260086020526040808220805460ff19166001179055517f971560706a1606833c12567a0d94d1b20f5c50f6aff47cb384a6363a4f7114079190a250565b60046020528160005260406000208181548110610c9d57600080fd5b6000918252602090912060039091020180546001820180546001600160a01b0383169550600160a01b90920460ff16935090610cd890611db2565b80601f0160208091040260200160405190810160405280929190818152602001828054610d0490611db2565b8015610d515780601f10610d2657610100808354040283529160200191610d51565b820191906000526020600020905b815481529060010190602001808311610d3457829003601f168201915b5050505050908060020154905084565b6060600082118015610d7557506002548211155b610d915760405162461bcd60e51b815260040161055f90611d87565b600082815260046020908152604080832080548251818502810185019093528083529193909284015b82821015610eb0576000848152602090819020604080516080810182526003860290920180546001600160a01b0381168452600160a01b900460ff1615159383019390935260018301805492939291840191610e1590611db2565b80601f0160208091040260200160405190810160405280929190818152602001828054610e4190611db2565b8015610e8e5780601f10610e6357610100808354040283529160200191610e8e565b820191906000526020600020905b815481529060010190602001808311610e7157829003601f168201915b5050505050815260200160028201548152505081526020019060010190610dba565b505050509050919050565b6003602081905260009182526040909120805460018201546002830154938301546004840154600585018054949660ff8086169761010087048216976201000090970490911695919493929091610f1190611db2565b80601f0160208091040260200160405190810160405280929190818152602001828054610f3d90611db2565b8015610f8a5780601f10610f5f57610100808354040283529160200191610f8a565b820191906000526020600020905b815481529060010190602001808311610f6d57829003601f168201915b505050506006830154600784015460088501546009860154600a90960154949592946001600160a01b0390921693509160ff16908d565b6000610fcb6117be565b60008981526006602052604090205460ff16156110225760405162461bcd60e51b81526020600482015260156024820152745265706f727420616c72656164792065786973747360581b604482015260640161055f565b63055d4a7f19861215801561103b575063055d4a808613155b61107a5760405162461bcd60e51b815260206004820152601060248201526f496e76616c6964206c6174697475646560801b604482015260640161055f565b630aba94ff1985121580156110935750630aba95008513155b6110d35760405162461bcd60e51b8152602060048201526011602482015270496e76616c6964206c6f6e67697475646560781b604482015260640161055f565b600280549060006110e383611efa565b9091555050600254604080516101a081019091528a8152602081018a600681111561111057611110611978565b815260200189600381111561112757611127611978565b8152602001600081526020014281526020018881526020018781526020018681526020018581526020018461115c573361115f565b60005b6001600160a01b0316815260006020808301829052861515604080850191909152606090930182905284825260038152919020825181559082015160018083018054909160ff19909116908360068111156111bc576111bc611978565b0217905550604082015160018201805461ff0019166101008360038111156111e6576111e6611978565b0217905550606082015160018201805462ff000019166201000083600481111561121257611212611978565b02179055506080820151600282015560a0820151600382015560c0820151600482015560e082015160058201906112499082611e3a565b506101008201516006808301919091556101208301516007830180546001600160a01b039092166001600160a01b0319909216919091179055610140830151600883015561016083015160098301805491151560ff1992831617905561018090930151600a9092019190915560008c81526020919091526040902080549091166001179055826112f657336000908152600560209081526040822080546001810182559083529120018190555b89817fc43acbe19b933424ce4666fcabeb3917c73d1a16622190b958151b922cce97028b8b874260405161132d9493929190611f29565b60405180910390a3905061134060018055565b98975050505050505050565b6113546117be565b60008211801561136657506002548211155b6113825760405162461bcd60e51b815260040161055f90611d87565b60008281526003602052604090206002600182015462010000900460ff1660048111156113b1576113b1611978565b146113f45760405162461bcd60e51b815260206004820152601360248201527214995c1bdc9d081b9bdd081d995c9a599a5959606a1b604482015260640161055f565b600081600a01541161143e5760405162461bcd60e51b81526020600482015260136024820152724e6f2072657761726420617661696c61626c6560681b604482015260640161055f565b600981015460ff1661149e5760078101546001600160a01b031633146114995760405162461bcd60e51b815260206004820152601060248201526f2737ba103a3432903932b837b93a32b960811b604482015260640161055f565b6114e6565b6001600160a01b0382166114e65760405162461bcd60e51b815260206004820152600f60248201526e496e76616c6964206164647265737360881b604482015260640161055f565b600a810180546000918290556040519091906001600160a01b0385169083908381818185875af1925050503d806000811461153d576040519150601f19603f3d011682016040523d82523d6000602084013e611542565b606091505b505090508061158c5760405162461bcd60e51b815260206004820152601660248201527514995dd85c99081d1c985b9cd9995c8819985a5b195960521b604482015260640161055f565b836001600160a01b0316857f24b5efa61dd1cfc659205a97fb8ed868f3cb8c81922bab2b96423e5de1de2cb7846040516115c891815260200190565b60405180910390a35050506105ff60018055565b6115e46116be565b6001600160a01b03811661160e57604051631e4fbdf760e01b81526000600482015260240161055f565b6116178161176e565b50565b3360009081526008602052604090205460ff168061164257506000546001600160a01b031633145b6116865760405162461bcd60e51b81526020600482015260156024820152742737ba1030baba3437b934bd32b2103930b733b2b960591b604482015260640161055f565b60008211801561169857506002548211155b6116b45760405162461bcd60e51b815260040161055f90611d87565b6105ff82826116eb565b6000546001600160a01b03163314610c2b5760405163118cdaa760e01b815233600482015260240161055f565b600082815260036020526040902060010180546201000080820460ff16928492909162ff0000199091169083600481111561172857611728611978565b0217905550827f8563ae19bdaf9e7ba3a9767beeab9cd2b759a1a362316253bec6498bcd096fad82844260405161176193929190611f56565b60405180910390a2505050565b600080546001600160a01b038381166001600160a01b0319831681178455604051919092169283917f8be0079c531659141344cd1fd0a4f28419497f9722a3daafe3b4186f6b6457e09190a35050565b6002600154036117e157604051633ee5aeb560e01b815260040160405180910390fd5b6002600155565b634e487b7160e01b600052601160045260246000fd5b80820180821115611811576118116117e8565b92915050565b80356001600160a01b038116811461182e57600080fd5b919050565b60006020828403121561184557600080fd5b61184e82611817565b9392505050565b60006020828403121561186757600080fd5b5035919050565b8035801515811461182e57600080fd5b634e487b7160e01b600052604160045260246000fd5b600082601f8301126118a557600080fd5b813567ffffffffffffffff808211156118c0576118c061187e565b604051601f8301601f19908116603f011681019082821181831017156118e8576118e861187e565b8160405283815286602085880101111561190157600080fd5b836020870160208301376000602085830101528094505050505092915050565b60008060006060848603121561193657600080fd5b833592506119466020850161186e565b9150604084013567ffffffffffffffff81111561196257600080fd5b61196e86828701611894565b9150509250925092565b634e487b7160e01b600052602160045260246000fd5b6007811061199e5761199e611978565b9052565b6004811061199e5761199e611978565b6005811061199e5761199e611978565b6000815180845260005b818110156119e8576020818501810151868301820152016119cc565b506000602082860101526020601f19601f83011685010191505092915050565b60006101808e8352611a1d602084018f61198e565b611a2a604084018e6119a2565b611a37606084018d6119b2565b8a60808401528960a08401528860c08401528060e0840152611a5b818401896119c2565b61010084019790975250509215156101208401526101408301919091526101609091015298975050505050505050565b60008060408385031215611a9e57600080fd5b611aa783611817565b946020939093013593505050565b6020808252825182820181905260009190848201906040850190845b81811015611aed57835183529284019291840191600101611ad1565b50909695505050505050565b60008060408385031215611b0c57600080fd5b50508035926020909101359150565b6001600160a01b03851681528315156020820152608060408201819052600090611b47908301856119c2565b905082606083015295945050505050565b60006020808301818452808551808352604092508286019150828160051b87010184880160005b83811015611be357888303603f19018552815180516001600160a01b031684528781015115158885015286810151608088860181905290611bc2828701826119c2565b60609384015196909301959095525094870194925090860190600101611b7f565b509098975050505050505050565b8d8152611c01602082018e61198e565b611c0e604082018d6119a2565b611c1b606082018c6119b2565b8960808201528860a08201528760c08201526101a060e08201526000611c456101a08301896119c2565b610100830197909752506001600160a01b039490941661012085015261014084019290925215156101608301526101809091015298975050505050505050565b600080600080600080600080610100898b031215611ca257600080fd5b88359750602089013560078110611cb857600080fd5b9650604089013560048110611ccc57600080fd5b9550606089013594506080890135935060a089013567ffffffffffffffff811115611cf657600080fd5b611d028b828c01611894565b93505060c08901359150611d1860e08a0161186e565b90509295985092959890939650565b60008060408385031215611d3a57600080fd5b82359150611d4a60208401611817565b90509250929050565b60008060408385031215611d6657600080fd5b82359150602083013560058110611d7c57600080fd5b809150509250929050565b602080825260119082015270125b9d985b1a59081c995c1bdc9d081251607a1b604082015260600190565b600181811c90821680611dc657607f821691505b602082108103611de657634e487b7160e01b600052602260045260246000fd5b50919050565b601f8211156108d457600081815260208120601f850160051c81016020861015611e135750805b601f850160051c820191505b81811015611e3257828155600101611e1f565b505050505050565b815167ffffffffffffffff811115611e5457611e5461187e565b611e6881611e628454611db2565b84611dec565b602080601f831160018114611e9d5760008415611e855750858301515b600019600386901b1c1916600185901b178555611e32565b600085815260208120601f198616915b82811015611ecc57888601518255948401946001909101908401611ead565b5085821015611eea5787850151600019600388901b60f8161c191681555b5050505050600190811b01905550565b600060018201611f0c57611f0c6117e8565b5060010190565b634e487b7160e01b600052603260045260246000fd5b60808101611f37828761198e565b611f4460208301866119a2565b92151560408201526060015292915050565b60608101611f6482866119b2565b611f7160208301856119b2565b82604083015294935050505056fea2646970667358221220db811c68bce587dfbaffa407a5dc3e44b23c6436ddde40ac5da20d4a7e55cd1f64736f6c63430008140033",
  "linkReferences": {},
  "deployedLinkReferences": {}
}